{
  "contractName": "Scorecard",
  "abi": [
    {
      "inputs": [],
      "stateMutability": "nonpayable",
      "type": "constructor"
    },
    {
      "anonymous": false,
      "inputs": [
        {
          "indexed": false,
          "internalType": "string",
          "name": "_firstName",
          "type": "string"
        },
        {
          "indexed": false,
          "internalType": "string",
          "name": "_lastName",
          "type": "string"
        },
        {
          "indexed": false,
          "internalType": "uint256",
          "name": "_studentId",
          "type": "uint256"
        }
      ],
      "name": "studentAdded",
      "type": "event"
    },
    {
      "anonymous": false,
      "inputs": [
        {
          "indexed": false,
          "internalType": "uint256",
          "name": "_studentId",
          "type": "uint256"
        },
        {
          "indexed": false,
          "internalType": "uint256",
          "name": "_englishMarks",
          "type": "uint256"
        },
        {
          "indexed": false,
          "internalType": "uint256",
          "name": "_mathsMarks",
          "type": "uint256"
        },
        {
          "indexed": false,
          "internalType": "uint256",
          "name": "_sciencemMarks",
          "type": "uint256"
        }
      ],
      "name": "studentScoreRecoded",
      "type": "event"
    },
    {
      "inputs": [],
      "name": "classTeacher",
      "outputs": [
        {
          "internalType": "address",
          "name": "",
          "type": "address"
        }
      ],
      "stateMutability": "view",
      "type": "function",
      "constant": true
    },
    {
      "inputs": [
        {
          "internalType": "string",
          "name": "_firstName",
          "type": "string"
        },
        {
          "internalType": "string",
          "name": "_lastName",
          "type": "string"
        }
      ],
      "name": "addStudentDetails",
      "outputs": [],
      "stateMutability": "nonpayable",
      "type": "function"
    },
    {
      "inputs": [
        {
          "internalType": "uint256",
          "name": "_studentId",
          "type": "uint256"
        },
        {
          "internalType": "uint256",
          "name": "_englishMarks",
          "type": "uint256"
        },
        {
          "internalType": "uint256",
          "name": "_mathsMarks",
          "type": "uint256"
        },
        {
          "internalType": "uint256",
          "name": "_sciencemMarks",
          "type": "uint256"
        }
      ],
      "name": "addStudentScores",
      "outputs": [],
      "stateMutability": "nonpayable",
      "type": "function"
    }
  ],
  "bytecode": "0x60806040526000805534801561001457600080fd5b5033600160006101000a81548173ffffffffffffffffffffffffffffffffffffffff021916908373ffffffffffffffffffffffffffffffffffffffff160217905550610941806100656000396000f3fe608060405234801561001057600080fd5b50600436106100415760003560e01c80634c94ebbb14610046578063a24232c514610062578063be645d0a1461007e575b600080fd5b610060600480360381019061005b9190610400565b61009c565b005b61007c600480360381019061007791906105ad565b6101ad565b005b6100866102ed565b6040516100939190610666565b60405180910390f35b338073ffffffffffffffffffffffffffffffffffffffff16600160009054906101000a900473ffffffffffffffffffffffffffffffffffffffff1673ffffffffffffffffffffffffffffffffffffffff161461012d576040517f08c379a000000000000000000000000000000000000000000000000000000000815260040161012490610704565b60405180910390fd5b60006003600087815260200190815260200160002090508481600101819055508381600201819055508281600301819055508581600001819055507fc0a0fdeb4cf33f6b21482532b28bbb22dd7aeed7f2b2cf751a8c5d52b66a91e98686868660405161019d9493929190610733565b60405180910390a1505050505050565b338073ffffffffffffffffffffffffffffffffffffffff16600160009054906101000a900473ffffffffffffffffffffffffffffffffffffffff1673ffffffffffffffffffffffffffffffffffffffff161461023e576040517f08c379a000000000000000000000000000000000000000000000000000000000815260040161023590610704565b60405180910390fd5b6000600260008054815260200190815260200160002090508381600001908051906020019061026e929190610313565b5082816001019080519060200190610287929190610313565b5060005481600201819055507faee3b08f60bd17d98cf5318d54d8104d3f63cd7878cb5ee81a3ab7d3c8ef1d3d84846000546040516102c8939291906107ef565b60405180910390a16000808154809291906102e290610863565b919050555050505050565b600160009054906101000a900473ffffffffffffffffffffffffffffffffffffffff1681565b82805461031f906108da565b90600052602060002090601f0160209004810192826103415760008555610388565b82601f1061035a57805160ff1916838001178555610388565b82800160010185558215610388579182015b8281111561038757825182559160200191906001019061036c565b5b5090506103959190610399565b5090565b5b808211156103b257600081600090555060010161039a565b5090565b6000604051905090565b600080fd5b600080fd5b6000819050919050565b6103dd816103ca565b81146103e857600080fd5b50565b6000813590506103fa816103d4565b92915050565b6000806000806080858703121561041a576104196103c0565b5b6000610428878288016103eb565b9450506020610439878288016103eb565b935050604061044a878288016103eb565b925050606061045b878288016103eb565b91505092959194509250565b600080fd5b600080fd5b6000601f19601f8301169050919050565b7f4e487b7100000000000000000000000000000000000000000000000000000000600052604160045260246000fd5b6104ba82610471565b810181811067ffffffffffffffff821117156104d9576104d8610482565b5b80604052505050565b60006104ec6103b6565b90506104f882826104b1565b919050565b600067ffffffffffffffff82111561051857610517610482565b5b61052182610471565b9050602081019050919050565b82818337600083830152505050565b600061055061054b846104fd565b6104e2565b90508281526020810184848401111561056c5761056b61046c565b5b61057784828561052e565b509392505050565b600082601f83011261059457610593610467565b5b81356105a484826020860161053d565b91505092915050565b600080604083850312156105c4576105c36103c0565b5b600083013567ffffffffffffffff8111156105e2576105e16103c5565b5b6105ee8582860161057f565b925050602083013567ffffffffffffffff81111561060f5761060e6103c5565b5b61061b8582860161057f565b9150509250929050565b600073ffffffffffffffffffffffffffffffffffffffff82169050919050565b600061065082610625565b9050919050565b61066081610645565b82525050565b600060208201905061067b6000830184610657565b92915050565b600082825260208201905092915050565b7f6f6e6c7920636c6173732074656163686572206861732061636365737320746f60008201527f20746869732066756e6374696f6e000000000000000000000000000000000000602082015250565b60006106ee602e83610681565b91506106f982610692565b604082019050919050565b6000602082019050818103600083015261071d816106e1565b9050919050565b61072d816103ca565b82525050565b60006080820190506107486000830187610724565b6107556020830186610724565b6107626040830185610724565b61076f6060830184610724565b95945050505050565b600081519050919050565b60005b838110156107a1578082015181840152602081019050610786565b838111156107b0576000848401525b50505050565b60006107c182610778565b6107cb8185610681565b93506107db818560208601610783565b6107e481610471565b840191505092915050565b6000606082019050818103600083015261080981866107b6565b9050818103602083015261081d81856107b6565b905061082c6040830184610724565b949350505050565b7f4e487b7100000000000000000000000000000000000000000000000000000000600052601160045260246000fd5b600061086e826103ca565b91507fffffffffffffffffffffffffffffffffffffffffffffffffffffffffffffffff82036108a05761089f610834565b5b600182019050919050565b7f4e487b7100000000000000000000000000000000000000000000000000000000600052602260045260246000fd5b600060028204905060018216806108f257607f821691505b602082108103610905576109046108ab565b5b5091905056fea2646970667358221220b45828dd07a01ca897f6fe2a0adec9c496614b567ebca8abf328dec0567c2c2a64736f6c634300080d0033",
  "immutableReferences": {},
  "source": "// SPDX-License-Identifier: GPL-3.0\n\npragma solidity >=0.7.0 <0.9.0;\n\ncontract Scorecard {\n    uint256 studentsCount = 0;\n    address public classTeacher;\n\n    constructor () {\n        classTeacher = msg.sender;\n    }\n    modifier onlyClassTechaer(address _classTeacher){\n        require(classTeacher == _classTeacher, \"only class teacher has access to this function\");\n        _;\n    }\n    struct StudentDetails {\n        string firstName;\n        string lastName;\n        uint256 studentId;\n    }\n\n    struct Score {\n        uint256 studentId;\n        uint256 englishMarks;\n        uint256 mathsMarks;\n        uint256 sciencemMarks;\n    }\n\n    mapping (uint => StudentDetails) students;\n    mapping (uint => Score) scores;\n\n    event studentAdded(string _firstName, string _lastName, uint256 _studentId);\n\n    event studentScoreRecoded(\n        uint256 _studentId,\n        uint256 _englishMarks,\n        uint256 _mathsMarks,\n        uint256 _sciencemMarks);\n\n    function addStudentDetails (\n        string memory _firstName,\n        string memory _lastName\n        ) public onlyClassTechaer (msg.sender) {\n        StudentDetails storage studentObj = students[studentsCount];\n        studentObj.firstName = _firstName;\n        studentObj.lastName = _lastName;\n        studentObj.studentId = studentsCount;\n        emit studentAdded(_firstName, _lastName, studentsCount);\n        studentsCount++;\n    }\n\n    function addStudentScores (\n        uint256 _studentId,\n        uint256 _englishMarks,\n        uint256 _mathsMarks,\n        uint256 _sciencemMarks\n    ) public onlyClassTechaer (msg.sender) {\n        Score storage score = scores[_studentId];\n        score.englishMarks = _englishMarks;\n        score.mathsMarks = _mathsMarks;\n        score.sciencemMarks = _sciencemMarks;\n        score.studentId = _studentId;\n\n        emit studentScoreRecoded(_studentId, _englishMarks, _mathsMarks, _sciencemMarks);\n    }\n}",
  "sourcePath": "/Users/ankit/Learning/blockchain/deployUsingTruffle/contracts/Scorecard.sol",
  "compiler": {
    "name": "solc",
    "version": "0.8.13+commit.abaa5c0e.Emscripten.clang"
  },
  "schemaVersion": "3.4.7",
  "updatedAt": "2022-05-18T06:21:16.631Z",
  "networkType": "ethereum",
  "devdoc": {
    "kind": "dev",
    "methods": {},
    "version": 1
  },
  "userdoc": {
    "kind": "user",
    "methods": {},
    "version": 1
  }
}